:0809C800CEF85EFC5EF4109015
:1009D000A5F200811090F3E70EC901701CC90270E6
:1009E00002C800F0EA0A037002C800F08A0B047023
:1009F00002C800F0DE0B1290F0E709C905F400E030
:100A00001390F0E71092F2E71290EEE743F001E066
:100A10001EF41EFC8EF210800420047017C8000023
:100A20001190F3E702001190F2E700001190A3F299
:100A30001290F0E709C905F400E01390F0E7109276
:100A4000F2E71290EEE743F001E0E2CE10800220E0
:100A500002700AC800001190F3E701001190F2E75C
:100A600002001190A3F23ECE1290E8E715C90200F1
:100A70001190F3E7129CE6E7C0901190A2F2C5F046
:100A800081E01390E6E71290E8E7FFE01390E8E7D3
:100A900001001190A3F226CE1090E4E70FC90400E4
:100AA0001190F3E701041290ECE7FFE01292EEE7F9
:100AB00027F001C881041194A3F214CE0300119011
:100AC000F3E7129CEAE7C0901190A2F2C5F081E032
:100AD0001390EAE71290EEE781E01390EEE7010051
:100AE0001190A3F200E000F0100A108002200270C2
:100AF0000BC800001190F3E701001190F2E702002B
:100B00001190A3F200F0840B1290E8E712C9129C36
:100B1000E6E7C0901190A2F2C5F081E01390E6E7FD
:100B20001290E8E7FFE01390E8E701001190A3F2CC
:100B300029CE1290ECE707C800001190F3E70200FD
:100B40001190A3F21FCE1090E4E708C901001190A4
:100B5000F3E780A0A1F2A0A0A3F214CE03001190AD
:100B6000F3E7129CEAE7C0901190A2F2C5F081E091
:100B70001390EAE71290EEE781E01390EEE70100B0
:100B80001190A3F200E000F0100A10800220027021
:100B900008C800001190F3E701001190F2E702008D
:100BA00019CE1290ECE71292EEE727F00FC9129CD3
:100BB000EAE7C0901190A2F2C5F081E01390EAE755
:100BC00025F081E01390EEE7010004CE00001190C3
:100BD000F3E702001190A3F200E000F0100A129C6B
:020BE000EAE742
:0E0BE2001090A0F2C1901290EAE781E013900B
:100BF000EAE71290EEE781E01390EEE71290ECE75F
:100C00001292EEE727F008C90104FFE027F001C8BF
:100C100081041194A3F206CE00001190F3E70200C4
:0A0C20001190A3F200E000F0100AAA
:08007800000000000000000080
:08008000000000000000000078
:0606AA005EF40000119057
:1006B00011F0119012F0119013F0119014F01190AC
:1006C00015F0119016F0119017F0119018F011908C
:1006D00019F011901AF011901BF011901CF011906C
:1006E0001DF011901EF011901FF000E445F046F04F
:1006F0000402040309A2A4E781E41F740055F6C5AF
:040700001EF41FFEC6
:0403D20008ED1FFE15
:0203CE00F7EB4B
:0203D0001FFE0E
:080368006EF8008825FA1F70F1
:1003700003C17FE02EF81FFE25F206C98080000130
:1003800006F009AAA4E707CE8080000106F0040267
:0A039000040309A2A4E700E0EDCE8B
:020006000FFEEB
:020404001FFED9
:0A065600000106F008A0A4E702F07E
:040CFC00CEFF6EF0C9
:100D0000109000F04EF0000001F056060EF0119029
:060D100000F02EF08EFF42
:060C9A00CEF96EF010908F
:100CA00000F04EF0010001F056060EF0119000F039
:060CB0002EF08EF90FFE8C
:0601EA00CEF96EF010904A
:1001F00000F04EF0020001F056060EF0119000F0F3
:060200002EF08EF90FFE46
:0A020600CEF96EF0109000F04EF0FB
:10021000030001F056060EF0119000F02EF08EF95A
:020220000FFECF
:0E0C6200CEF96EF0109000F04EF0040001F09C
:0E0C700056060EF0119000F02EF08EF90FFED9
:0800B800CEF96EF0109000F08B
:1000C0004EF0050001F056060EF0119000F02EF0F3
:0400D0008EF90FFE98
:0C00D400CEF96EF0109000F04EF0060027
:1000E00001F056060EF0119000F02EF08EF90FFE82
:060C2A00CEF96EF01090FF
:100C300000F04EF0070001F056060EF0119000F0A3
:060C40002EF08EF90FFEFC
:0A0C4600CEF96EF0109000F04EF0B1
:100C5000080001F056060EF0119000F02EF08EF90B
:020C60000FFE85
:060D6A00CEF96EF01090BE
:100D700000F04EF0090001F056060EF0119000F060
:060D80002EF08EF90FFEBB
:0C0CC400CEF96EF0109000F04EF00A0027
:100CD00001F056060EF0119000F02EF08EF90FFE86
:020D4E00CEF9DC
:100D50006EF0109000F04EF00B0001F056060EF011
:0A0D6000119000F02EF08EF90FFE46
:0A0E1600CEF96EF0109000F04EF0DF
:100E20000C0001F056060EF0119000F02EF08EF935
:020E30000FFEB3
:0C029400CEF96EF0109000F04EF00D005E
:1002A00001F056060EF0119000F02EF08EF90FFEC0
:1002B000CEF96EF0109000F04EF00E0001F05606F0
:0C02C0000EF0119000F02EF08EF90FFEF1
:0C030400CEF96EF0109000F04EF00F00EB
:1003100001F056060EF0119000F02EF08EF90FFE4F
:10032000CEF96EF0109000F04EF0100001F056067D
:0C0330000EF0119000F02EF08EF90FFE80
:0A024600CEF96EF0109000F04EF0BB
:10025000110001F056060EF0119000F02EF08EF90C
:020260000FFE8F
:0E022200CEF96EF0109000F04EF0120001F0D8
:0E02300056060EF0119000F02EF08EF90FFE23
:0402CC00CEF96EF009
:1002D000109000F04EF0130001F056060EF0119051
:0802E00000F02EF08EF90FFE74
:0A0D1600CEF96EF0109000F04EF0E0
:100D2000140001F056060EF0119000F02EF08EF92E
:020D30000FFEB4
:0802E800CEF96EF0109000F059
:1002F0004EF0150001F056060EF0119000F02EF0B1
:040300008EF90FFE65
:0E0D3200CEF96EF0109000F04EF0160001F0B9
:0E0D400056060EF0119000F02EF08EF90FFE08
:0E060200CEF96EF0109000F04EF0170001F0EF
:0E06100056060EF0119000F02EF08EF90FFE3F
:0E056200CEF96EF0109000F04EF0180001F08F
:0E05700056060EF0119000F02EF08EF90FFEE0
:02057E00CEF9B4
:100580006EF0109000F04EF0190001F056060EF0DB
:0A059000119000F02EF08EF90FFE1E
:06059A00CEF96EF0109096
:1005A00000F04EF01A0001F056060EF0119000F027
:0605B0002EF08EF90FFE93
:100CE000CEF96EF0109000F04EF01B0001F05606A9
:0C0CF0000EF0119000F02EF08EF90FFEB7
:020C7E00CEF9AD
:100C80006EF0109000F04EF01C0001F056060EF0D1
:0A0C9000119000F02EF08EF90FFE17
:04009C00CEF96EF03B
:1000A000109000F04EF01D0001F056060EF0119079
:0800B00000F02EF08EF90FFEA6
:0803E800CEF96EF0109000F058
:1003F0004EF01E0001F056060EF0119000F02EF0A7
:040400008EF90FFE64
:02000800FC0CEE
:04000C009A0C060044
:10001000EA010602620C0600B800D4002A0C460C65
:100020006A0D0600C40C0600060006004E0D160EF2
:10003000060006009402B002060006000600060054
:100040000403200306000600060006004602220202
:100050000600060006000600CC02160DE802320D6E
:10006000020662057E059A050600E00C06007E0C7D
:080070009C0006000600E803F5
:1006600001F0680701F050030AE001F03C0392A09A
:1006700060F2B2A060F282A058F282A060F2A2A062
:1006800060F2D2A058F2A2A058F2F2A058F2E2A072
:1006900058F27D020003A0000F0101F0780201E092
:0A06A00001F03C0301F05003F4CE1A
:10035000F7EB5A0011900EF081A00EF0FAC9A5003B
:0803600011900EF008ED1FFEE4
:08076800CEF880A02AF0A0A049
:100770002AF0B0A02AF0E0A02AF0F2A02AF00000AF
:1007800011902CF011902EF011902FF001F0B60C7A
:1007900001F0B60501F06A0401F0040701F0060457
:1007A00001F0CE0301F0AA060000119017F011909D
:1007B00016F0119015F0119014F0119013F01190A3
:1007C00012F0119011F0119010F011901FF0119093
:1007D0001EF011901DF011901CF011901BF0119063
:1007E0001AF0119019F0119018F0740202030F0022
:1007F00001F0680380A014F0BC0209030C0001F0B2
:100800006803F0A012F0F2A01AF0B40209030A0083
:1008100001F06803A0A012F0A2A01AF0D602030310
:100820001E0001F06803B0A017F0B0A01FF00F0089
:1008300011900BF0360204030E0001F06803A0A033
:1008400013F0B0A013F0A0A01BF0B0A01BF080A08C
:10085000E2F890A0E2F8A0A0E2F880A0E6F890A06C
:10086000E6F8A0A0E6F8000001F01E0600001190D6
:10087000E0F820001190E4F880A0E2F892A0E2F8FD
:1008800000001190E1F880A0E3F8D0A0E2F8B0A059
:100890000BF0A0A00BF090A00BF080A00BF02E02AC
:1008A0000503160001F06803E0A015F0F0A015F0B4
:1008B000E0A01DF0F0A01DF080A0EAF890A0EAF8FA
:1008C000A0A0EAF880A0EEF890A0EEF8A0A0EEF8C4
:1008D000010001F01E0600001190E8F820001190C0
:1008E000ECF880A0EAF892A0EAF800001190E9F88C
:1008F00080A0EBF8D0A0EAF8B0A00BF0A0A00BF01D
:1009000090A00BF080A00BF09A020303140001F0FA
:100910006803C0A015F0D0A015F0C0A01DF0D0A0B5
:100920001DF080A062F390A062F3B0A062F380A0FB
:100930006AF390A06AF3B0A06AF3020001F01E0609
:100940000000119060F32000119068F380A062F322
:1009500092A062F30000119061F380A063F3A0A065
:1009600062F3B0A00BF0A0A00BF090A00BF080A061
:100970000BF0B0A059F2B2A05BF2B2A05AF2B2A052
:100980005DF2B2A05CF2F0A025F0F2A024F0F2A09B
:1009900026F062020203080001F06803F2A011F0E1
:1009A000F2A019F001F0D203030011900FF001F052
:0409B00050038EF270
:0A0CB6000000119002F090A003F07E
:040CC00008ED1FFE1E
:0A05B60082A051F292A051F2A2A01F
:1005C00051F280A053F280A052F290A053F290A07A
:1005D00052F2A0A053F2A0A052F282A055F282A043
:1005E00054F292A055F292A054F2A2A055F2A2A009
:1005F00054F282A050F292A050F2A2A050F200F069
:020600005003A5
:06046A0082A059F292A0ED
:1004700059F2A2A059F2B2A059F2C2A059F2D2A0E8
:1004800059F2E2A059F2F2A059F280A05BF280A0EA
:100490005AF290A05BF290A05AF2A0A05BF2A0A04A
:1004A0005AF2B0A05BF2B0A05AF2C0A05BF2C0A0BA
:1004B0005AF2D0A05BF2D0A05AF2E0A05BF2E0A02A
:1004C0005AF2F0A05BF2F0A05AF282A05DF282A094
:1004D0005CF292A05DF292A05CF2A2A05DF2A2A0FA
:1004E0005CF2B2A05DF2B2A05CF2C2A05DF2C2A06A
:1004F0005CF2D2A05DF2D2A05CF2E2A05DF2E2A0DA
:100500005CF2F2A05DF2F2A05CF282A058F292A03E
:1005100058F2A2A058F2B2A058F2C2A058F2D2A04B
:0E05200058F2E2A058F2F2A058F200F0500398
:0C07040082A061F292A061F2A2A061F25A
:10071000B2A061F280A063F280A062F290A063F2C6
:1007200090A062F2A0A063F2A0A062F2B0A063F277
:10073000B0A062F282A065F282A064F292A065F29B
:1007400092A064F2A2A065F2A2A064F2B2A065F247
:10075000B2A064F282A060F292A060F2A2A060F265
:08076000B2A060F200F05003AA
:08027800139010F9139212F922
:0602800080A017F91FFE2B
:0A04060082A059F280A05BF280A0F2
:100410005AF282A05DF280A05CF292A016F980A050
:1004200016F99A001001139010F90CE0139012F9CC
:0604300082A017F91FFE77
:0409BC00CEF801F080
:0809C000C80901F03E028EF2AD
:0809B40001001190E2E71FFEB3
:02023E000100BD
:060240001190E3E71FFE30
:0402740000F0F000A6
:0A03D600D1A058F203C9D2A058F2DA
:0803E0001FFED0A058F21FFE21
:0A043600CEF891A060F203C992A075
:1004400060F202CE90A060F2B1A060F203C9B2A047
:1004500060F202CEB0A060F2000001F01E060000C3
:0A0460001190E1F880A0E3F88EF29D
:02052E00CEF805
:1005300081A060F203C982A060F202CE80A060F2C6
:10054000A1A060F203C9A2A060F202CEA0A060F256
:10055000010001F01E0600001190E9F880A0EBF800
:020560008EF219
:06039A00CEF8A1A058F20C
:1003A00003C9A2A058F202CEA0A058F2F1A058F2C0
:1003B00003C9F2A058F202CEF0A058F2020001F0F8
:0E03C0001E060000119061F380A063F38EF220
:0E026200E1A058F203C9E2A058F21FFEE0A08E
:0402700058F21FFE23
:04033C005EF805F86A
:1003400000E085F201CE81E027F0FDC11EF81FFE1E
:02000200860D69
:02000000A2E775
:02000400880D65
:0A0D860001CEFFCE00E000E200E421
:100D900000E60008E0098AF0579088E8E879FCC18D
:100DA0000078FAC15A0CA50D119C0EF081A00EF02E
:100DB000FBC9119D0EF0000A0CF09200AF9052900A
:100DC000FF7002C8FF7120C9AF905292AF90529449
:100DD000AF905096AF90509780E4F0C901A20BC835
:100DE00001A409C86F90029882E07F90239882E264
:100DF000FEE4F8C8E3CE6F90009881E07F902198E0
:100E000081E2FFE4F8C8DACE01F00A000000119098
:060E100000F000F0600696
:02000A001FFED7
:080092007800E4E71A00000009
:02009A00FFFF66
:105FE000FFFFFFFFFFFFFFFFFFFFFFFFFFFFFFFFC1
:105FF000FFFFFFFFFFFFFFFFFFFFFFFFFFFFFFFFB1
:02061E0000706A
:1006200005C901700AC902700FC91FFE82A0E3F854
:1006300082A0E7F8D0A0E2F81FFE82A0EBF882A02B
:10064000EFF8D0A0EAF81FFE82A063F382A06BF35C
:06065000A0A062F31FFEF2
:1000F000CEF85EFC109092F20120007035C812908C
:10010000F6E71292F8E727F019C9109096F2082046
:10011000007012C8129CF4E7C090119090F2C5F0E4
:1001200081E01390F4E725F081E01390F8E780A0D8
:1001300091F200E01EFC8EF27FE0FCCE109091F276
:10014000012000700FC81290FAE70AC91092FCE76C
:100150001290F6E7129CFAE7C3F000E01390FAE77A
:1001600001E0E8CE7EE0E6CE1290F6E71292F8E7E4
:1001700027F02CC9109096F2072000821090FCE71F
:1001800023801190FCE782A096F292A096F2A2A0A2
:1001900096F2129CF4E7109090F2C1901290F4E75E
:1001A00081E01390F4E71290F8E781E01390F8E70C
:1001B00001A209C81290F6E71292F8E727F006C9E3
:1001C00000E000F03401010001F086021290FAE72D
:1001D00009C905FC00E01390FAE71092FCE71290C1
:0A01E000F6E7C3F001E000F034017F
:0A02860000821090A2E7238011907F
:04029000A2E71FFEC4
:08008800000000000000000070
:0200900000006E
:00000001FF
