:06098A00CEF85EFE1AAE7D
:10099000FAE15EFC5EF41090A5F2FFD01090A3E7A0
:1009A0000EC901701FC9027002C800F0B40A0370BA
:1009B00002C800F0540B047002C800F0A80B12909B
:1009C000A0E70AC9FCB000E01390A0E71092A2E7EC
:1009D00012909EE77CB443F001E01EF41EFCEAA1F5
:1009E0001EFE8EF27FD00420047018C80000119003
:1009F000A3E702001190A2E700001190A3F2129069
:100A0000A0E70AC9FCB000E01390A0E71092A2E7AB
:100A100012909EE77CB443F001E0DFCE7FD002204D
:100A2000027008C800001190A3E701001190A2E72E
:100A300002003BCE129098E713C902001190A3E781
:100A4000129C96E7C0901190A2F2C5F081E013903D
:100A500096E7129098E7FFE0139098E7010025CE03
:100A6000109094E710C904001190A3E70100FBD097
:100A700012909CE7FFE012929EE727F002C88100E7
:100A8000FBD07BD012CE03001190A3E7129C9AE713
:100A9000C0901190A2F2C5F081E013909AE71290F5
:100AA0009EE781E013909EE701001190A3F200E021
:100AB00000F0DA097FD0022002700BC8000011900C
:100AC000A3E701001190A2E702001190A3F200F049
:100AD0004E0B129098E712C9129C96E7C0901190A5
:100AE000A2F2C5F081E0139096E7129098E7FFE03C
:100AF000139098E701001190A3F229CE12909CE781
:100B000007C800001190A3E702001190A3F21FCEC6
:100B1000109094E708C901001190A3E780A0A1F20A
:100B2000A0A0A3F214CE03001190A3E7129C9AE7B1
:100B3000C0901190A2F2C5F081E013909AE7129054
:100B40009EE781E013909EE701001190A3F200E080
:100B500000F0DA097FD00220027008C8000011906E
:100B6000A3E701001190A2E7020019CE12909CE7C2
:100B700012929EE727F00FC9129C9AE7C09011903D
:100B8000A2F2C5F081E013909AE725F081E013907E
:100B90009EE7010004CE00001190A3E7020011902F
:0C0BA000A3F200E000F0DA09129C9AE7D2
:040BAC001090A0F213
:100BB000C19012909AE781E013909AE712909EE715
:100BC00081E013909EE712909CE712929EE727F037
:100BD0000BC90100FBD012909CE7FFE027F002C890
:100BE0008100FBD07BD004CE00001190A3E702006F
:0A0BF0001190A3F200E000F0DA0912
:08007800000000000000000080
:08008000000000000000000078
:0404380008ED1FFEAE
:04043400F7EB1FFEC5
:0403AC006EF800885F
:1003B00025FA1F7003C17FE02EF81FFE25F206C943
:1003C0008080000106F009AAB0E507CE8080000118
:0E03D00006F05802040309A2B0E500E0EDCEED
:020006000FFEEB
:020458001FFE85
:0A077600000106F008A0B0E502F053
:020CDE00CEFF47
:100CE0006EF0109000F04EF0000001F076070EF06C
:080CF000119000F02EF08EFFC0
:060C6A00CEF96EF01090BF
:100C700000F04EF0010001F076070EF0119000F048
:060C80002EF08EF90FFEBC
:0E024200CEF96EF0109000F04EF0020001F0C8
:0E02500076070EF0119000F02EF08EF90FFEE2
:02025E00CEF9D7
:100260006EF0109000F04EF0030001F076070EF0F3
:0A027000119000F02EF08EF90FFE41
:0E0C3200CEF96EF0109000F04EF0040001F0CC
:0E0C400076070EF0119000F02EF08EF90FFEE8
:0600FA00CEF96EF010903B
:1001000000F04EF0050001F076070EF0119000F0BF
:060110002EF08EF90FFE37
:0A011600CEF96EF0109000F04EF0EC
:10012000060001F076070EF0119000F02EF08EF927
:020130000FFEC0
:060BFA00CEF96EF0109030
:100C000000F04EF0070001F076070EF0119000F0B2
:060C10002EF08EF90FFE2C
:0A0C1600CEF96EF0109000F04EF0E1
:100C2000080001F076070EF0119000F02EF08EF91A
:020C30000FFEB5
:040D4C00CEF96EF07E
:100D5000109000F04EF0090001F076070EF01190AF
:080D600000F02EF08EF90FFEE9
:0A0CA600CEF96EF0109000F04EF051
:100CB0000A0001F076070EF0119000F02EF08EF988
:020CC0000FFE25
:100D3000CEF96EF0109000F04EF00B0001F0760747
:0C0D40000EF0119000F02EF08EF90FFE66
:0A0E2600CEF96EF0109000F04EF0CF
:100E30000C0001F076070EF0119000F02EF08EF904
:020E40000FFEA3
:0402CC00CEF96EF009
:1002D000109000F04EF00D0001F076070EF0119036
:0802E00000F02EF08EF90FFE74
:0802E800CEF96EF0109000F059
:1002F0004EF00E0001F076070EF0119000F02EF097
:040300008EF90FFE65
:04033C00CEF96EF098
:10034000109000F04EF00F0001F076070EF01190C3
:0803500000F02EF08EF90FFE03
:08035800CEF96EF0109000F0E8
:100360004EF0100001F076070EF0119000F02EF024
:040370008EF90FFEF5
:02029E00CEF997
:1002A0006EF0109000F04EF0110001F076070EF0A5
:0A02B000119000F02EF08EF90FFE01
:06027A00CEF96EF01090B9
:1002800000F04EF0120001F076070EF0119000F031
:060290002EF08EF90FFEB6
:0C030400CEF96EF0109000F04EF01300E7
:1003100001F076070EF0119000F02EF08EF90FFE2E
:080CF800CEF96EF0109000F03F
:100D00004EF0140001F076070EF0119000F02EF076
:040D10008EF90FFE4B
:10032000CEF96EF0109000F04EF0150001F0760757
:0C0330000EF0119000F02EF08EF90FFE80
:0C0D1400CEF96EF0109000F04EF01600CA
:100D200001F076070EF0119000F02EF08EF90FFE14
:06073A00CEF96EF01090F4
:1007400000F04EF0170001F076070EF0119000F067
:060750002EF08EF90FFEF1
:06069A00CEF96EF0109095
:1006A00000F04EF0180001F076070EF0119000F007
:0606B0002EF08EF90FFE92
:0A06B600CEF96EF0109000F04EF047
:1006C000190001F076070EF0119000F02EF08EF96F
:0206D0000FFE1B
:0E06D200CEF96EF0109000F04EF01A0001F01C
:0E06E00076070EF0119000F02EF08EF90FFE4E
:0E0CC200CEF96EF0109000F04EF01B0001F025
:0E0CD00076070EF0119000F02EF08EF90FFE58
:020C4E00CEF9DD
:100C50006EF0109000F04EF01C0001F076070EF0E0
:0A0C6000119000F02EF08EF90FFE47
:0200DE00CEF959
:1000E0006EF0109000F04EF01D0001F076070EF05B
:0A00F000119000F02EF08EF90FFEC3
:04043C00CEF96EF097
:10044000109000F04EF01E0001F076070EF01190B3
:0804500000F02EF08EF90FFE02
:02000800DE0C0C
:04000C006A0C060074
:1000100042025E02320C0600FA001601FA0B160CC0
:100020004C0D0600A60C060006000600300D260E3C
:1000300006000600CC02E8020600060006000600E4
:100040003C03580306000600060006009E027A02E2
:1000500006000600060006000403F80C2003140D39
:100060003A079A06B606D2060600C20C06004E0CE7
:08007000DE00060006003C045E
:1007800001F05008A1A058F203C9A2A058F202CE6D
:10079000A0A058F282A01CF001F098030D00119067
:1007A000B0E70A001190B1E76C0009015EF00EE2BB
:1007B000A400E70101F0DE0302E105CE01E001F053
:1007C000740301F098031090FFE70170F7C8DACEC8
:080398005A0011900EF081A043
:0C03A0000EF0FAC9A50011900EF01FFE2F
:10085000CEF880A02AF0A2A02AF0B0A02AF0E0A052
:100860002AF0F2A02AF0000011902CF011902EF046
:10087000FF0011902FF001F0EE0601F0D60501F017
:10088000EC0701F0860C01F034040000119017F021
:10089000119016F0119015F0119014F0119013F0C2
:1008A000119012F0119011F0119010F011901FF0B2
:1008B00011901EF011901DF011901CF011901BF082
:1008C00011901AF0119019F0119018F0BA02020369
:1008D0000F0001F0AC0380A014F080A01CF07E0299
:1008E00009030C0001F0AC03F0A012F0F2A01AF022
:1008F000640209030A0001F0AC03A0A012F0A2A058
:100900001AF001F03804AA0000015EF00002200392
:10091000020001F05A0402E101F0B400000011905D
:10092000FFE701F0D0070D001190B0E70A00119029
:10093000B1E76C0009015EF00EE2A400E70101F0EE
:10094000DE0302E105CE01E001F0740301F098033B
:100950001090FFE70170F7C8030011900FF001F04D
:0409600098038EF278
:0A0C860082A002F092A002F0B0A0DC
:100C900002F0A2A002F090A003F080A003F0F0A068
:060CA00003F008ED1FFE49
:0206EE0082A0E8
:1006F00051F292A051F2A2A051F280A053F280A038
:1007000052F290A053F290A052F2A0A053F2A0A0F7
:1007100052F282A055F282A054F292A055F292A019
:1007200054F2A2A055F2A2A054F282A050F292A0DC
:0A07300050F2A2A050F200F098036E
:0A05D60082A059F292A059F2A2A0EF
:1005E00059F2B2A059F2C2A059F2D2A059F2E2A037
:1005F00059F2F2A059F280A05BF280A05AF290A0CA
:100600005BF290A05AF2A0A05BF2A0A05AF2B0A0B8
:100610005BF2B0A05AF2C0A05BF2C0A05AF2D0A028
:100620005BF2D0A05AF2E0A05BF2E0A05AF2F0A098
:100630005BF2F0A05AF282A05DF282A05CF292A07E
:100640005DF292A05CF2A2A05DF2A2A05CF2B2A068
:100650005DF2B2A05CF2C2A05DF2C2A05CF2D2A0D8
:100660005DF2D2A05CF2E2A05DF2E2A05CF2F2A048
:100670005DF2F2A05CF282A058F292A058F2A2A021
:1006800058F2B2A058F2C2A058F2D2A058F2E2A09A
:0A06900058F2F2A058F200F09803AF
:0407EC0082A061F294
:1007F00092A061F2A2A061F2B2A061F280A063F2C5
:1008000080A062F290A063F290A062F2A0A063F2D6
:10081000A0A062F2B0A063F2B0A062F282A065F282
:1008200082A064F292A065F292A064F2A2A065F2A6
:10083000A2A064F2B2A065F2B2A064F282A060F25B
:1008400092A060F2A2A060F2B2A060F200F0980361
:04096C00CEF801F0D0
:0E097000320101001190FFE701F096028EF2B5
:02097E00CEF8B1
:0A09800001F08A0901F096028EF2E0
:0809640001001190EEE51FFEF9
:0802960001001190EFE51FFECD
:0402BA0000F032011D
:0C0374005EFE1AAEFCE15EF805F800E049
:10038000FEB0FCB802CE81E0FEB07CB227F0FBC12B
:080390001EF8EAA11EFE1FFE8B
:02000200680D87
:0800880048656C6C6F20576F96
:06009000726C64212020C7
:0600AA00802500000002A9
:0400B000000000004C
:02000000AEE56B
:020004006A0D83
:080D680001CEFFCE00E000E225
:100D700000E400E60008E0098AF0579088E8E87986
:100D8000FCC10078FAC15A0CA50D119C0EF081A08F
:100D90000EF0FBC9119D0EF0000A0CF0A000AF9000
:100DA0005290FF7002C8FF7120C9AF905292AF906D
:100DB0005294AF905096AF90509780E4F0C901A242
:100DC0000BC801A409C86F90029882E07F90239815
:100DD00082E2FEE4F8C8E3CE6F90009881E07F9055
:100DE000219881E2FFE4F8C8DACE01F00A000000A1
:080DF000119000F000F08007F3
:02000A001FFED7
:0800A000780094E7280000003D
:0200A800FFFF58
:105FE000FFFFFFFFFFFFFFFFFFFFFFFFFFFFFFFFC1
:105FF000FFFFFFFFFFFFFFFFFFFFFFFFFFFFFFFFB1
:06045A00CEF85EFE1AAEB2
:10046000F6E15EFC5EF8008800700EC9017002C8FB
:1004700000F08C05027002C800F094057FE01EF8C1
:100480001EFCEAA11EFE8EF20000800100E2FCB01C
:10049000FEB244BC6EF0C29002B26EF001F056079C
:1004A00004E12EF0F8B0FAB200700051005200538F
:1004B00002C87EE0E4CEFFE0FF62FF63F8B0FAB26C
:1004C00004D0037002C37DE0DACE05D0027002C30F
:1004D0007CE0D5CE06D0017002C37BE0D0CE07D041
:1004E000017002C37AE0CBCE08D0017002C379E07C
:1004F000C6CE00E01390B2E71390B4E71390B6E7CE
:100500001390B8E71190BAE782A091F201F0AC0520
:10051000109092F2F920F7D080801A9077D1038161
:1005200010801030119092F2C2A092F2109093F2CB
:100530008020F7D044BC05D02A9004D1038106D096
:100540004A90138007D15A91038108D06A90138092
:1005500077D10381F7D1119193F278D0119094F271
:10056000109095F2F020F7D079D00F2077D1038149
:10057000F7D1119195F282A096F292A096F2A2A0E4
:1005800096F2B2A096F200E000F07E0400E001E2F4
:1005900000F08E0425F000E27B937B927B917A90B1
:0C05A0003B933B923B913A9000F08E049C
:0203DE005EFEC1
:1003E0001AAE5EF805F882A091F282A092F2139004
:1003F000B2E71392B4E700E01390B6E742B013906F
:10040000B8E700001190BAE7007200530FC3809064
:10041000119090F21290B2E781E01390B2E712903F
:10042000B6E781E01390B6E780A091F21EF8EAA14A
:040430001EFE1FFE8F
:0E013200CEF85EFE1AAEFAE15EFC109092F27C
:100140000120FFD0007039C81290B4E71292B6E7D0
:1001500027F01CC9109096F20820FED0007014C839
:10016000129CB2E7C090119090F2C5F081E013901C
:10017000B2E725F081E01390B6E780A091F200E0AD
:100180001EFCEAA11EFE8EF27FE0FACE109091F2E4
:100190000120FDD000700FC81290B8E70AC9109274
:1001A000BAE71290B4E7129CB8E7C3F000E01390EE
:1001B000B8E701E0E5CE7EE0E3CE1290B4E712921C
:1001C000B6E727F02EC9109096F20720FCD01090C9
:1001D000BAE77CD113801190BAE782A096F292A080
:1001E00096F2A2A096F2129CB2E7109090F2C19003
:1001F0001290B2E781E01390B2E71290B6E781E087
:100200001390B6E77CD001A009C81290B4E712920F
:10021000B6E727F006C900E000F08001010001F018
:10022000BE021290B8E70AC9FAB000E01390B8E72E
:100230001092BAE71290B4E77ABCC3F001E000F084
:0202400080013B
:1007D00082A091F200E01390B2E71390B4E7139077
:0C07E000B6E71390B8E71190BAE71FFECF
:0202BE000082BC
:0C02C0001090AEE523801190AEE51FFE0B
:0C00B40092A059F290A05AF290A05BF2CA
:1000C00090A05CF292A05DF280A059F280A05AF25A
:0E00D00080A05BF280A05CF282A05DF21FFEB9
:0405AC0092A059F2CE
:1005B00092A05AF292A05BF292A05CF292A05DF23D
:1005C00082A059F282A05AF282A05BF282A05CF271
:0605D00082A05DF21FFE97
:0A0096000000000000000000000060
:0A075600CEF97EF06EF85EFC1AACDE
:10076000CBF012005498349001F0F80D35901EFC37
:060770002EF83EF08EF3AE
:080DF800200D00E400E61B974A
:100E00001B961B951B941B931B921B911A9087F4A6
:100E1000A586B58705C188849985A986B98700A06C
:060E2000FF1DEDC81FFEDE
:00000001FF
